:020000040800F2
:1000000068060120690200087102000873020008F6
:10001000750200087702000879020008000000005D
:100020000000000000000000000000007B0200084B
:100030007D020008000000007F0200088102000825
:10004000830200088302000883020008830200087C
:10005000830200088302000883020008830200086C
:10006000830200088302000883020008830200085C
:10007000830200088302000883020008830200084C
:10008000830200088302000883020008830200083C
:10009000830200088302000883020008830200082C
:1000A000830200088302000883020008830200081C
:1000B000830200088302000883020008830200080C
:1000C00083020008830200088302000883020008FC
:1000D00083020008830200088302000883020008EC
:1000E00083020008830200088302000883020008DC
:1000F00083020008830200088302000883020008CC
:1001000083020008830200088302000883020008BB
:1001100083020008830200088302000883020008AB
:10012000830200088302000883020008830200089B
:10013000830200088302000883020008830200088B
:10014000830200088302000883020008830200087B
:10015000830200088302000883020008830200086B
:10016000830200088302000883020008830200085B
:10017000830200088302000883020008830200084B
:10018000830200088302000883020008830200083B
:10019000830200088302000883020008830200082B
:1001A000830200088302000883020008830200081B
:1001B000830200088302000883020008830200080B
:1001C000830200088302000800F002F800F03CF807
:1001D0000AA090E8000C82448344AAF10107DA45A2
:1001E00001D100F031F8AFF2090EBAE80F0013F0B8
:1001F000010F18BFFB1A43F0010318476C060000FB
:100200008C060000103A24BF78C878C1FAD852078B
:1002100024BF30C830C144BF04680C607047000080
:100220000023002400250026103A28BF78C1FBD8FF
:10023000520728BF30C148BF0B6070471FB500F0A0
:10024000D0FA1FBD10B510BD00F09CF81146FFF7A5
:10025000F5FF00F09DFA00F0BAF803B4FFF7F2FFE3
:1002600003BC00F081F800000948804709480047B6
:10027000FEE7FEE7FEE7FEE7FEE7FEE7FEE7FEE756
:10028000FEE7FEE704480549054A064B70470000B3
:1002900079070008C90100086800012068060120EC
:1002A00068020120680201200EB5054614460E467C
:1002B00013A000F047F8284600F044F816A000F01C
:1002C00041F8304600F03EF815A000F03BF8002160
:1002D0008DF80B100A210DF10A008DF80A1008E0C4
:1002E00094FBF1F201FB124294FBF1F4303200F87E
:1002F000012D002CF4DC00F025F800F018F80000C7
:100300002A2A2A20617373657274696F6E20666190
:10031000696C65643A2000002C2066696C652000D9
:100320002C206C696E65200070477047704710B5CF
:10033000002000F01FF8FFF785FFBDE81040012006
:1003400000F012B810B5044602E0641C00F004F896
:1003500020780028F9D110BD08B569468DF8000055
:100360000320ABBE08BD000001491820ABBEFEE76C
:100370002600020010B500F039F8BDE8104000F08A
:100380002FB87047754600F049F8AE46050069463B
:10039000534620F00700854618B020B5FFF772FFDE
:1003A000BDE820404FF000064FF000074FF0000876
:1003B0004FF0000BAC46ACE8C009ACE8C009ACE8B3
:1003C000C009ACE8C00921F007018D46704710B59F
:1003D0000446AFF300802046BDE81040FFF73DBF64
:1003E000002801D0FFF7C0BF7047000010B5002102
:1003F00002A000F017F8012010BD0000534947414A
:100400004252543A2041626E6F726D616C20746585
:10041000726D696E6174696F6E000000004870470C
:100420000800012070B505460C460A2000E06D1C4E
:10043000FFF792FF35B128780028F8D102E0641C5C
:10044000FFF78AFF14B120780028F8D1BDE870408A
:100450000A20FFF781BF000080B584B003900291AD
:1004600000208DF80700039808B1FFE70AE040F686
:100470003F00C0F6000040F65001C0F600013B22EC
:10048000FFF712FF03984068002806D3FFE70398A0
:1004900040680F2801D8FFE70AE040F60C00C0F6DC
:1004A000000040F65001C0F600013C22FFF7FCFEC0
:1004B0000398416800200029009008D3FFE70398C3
:1004C00041680020102938BF01200090FFE7009804
:1004D000039A106851689268029B00F055F8039ADD
:1004E00010685168D268029B00F096F8039A106871
:1004F00051681269029B00F077F8039A10685168FE
:100500005269029B00F058F8039A1068516892698A
:10051000029B00F011F802984079012804D1FFE70E
:1005200001208DF8070003E000208DF80700FFE7A9
:100530009DF8070004B080BD85B00490039102923D
:10054000019300200090039800F0070000900398AA
:1005500007280AD8FFE702980399890000FA01F2F8
:100560000499086A1043086208E00298009900FAAA
:1005700001F20499486A10434862FFE7019901209B
:10058000087105B07047000084B003900291019299
:100590000093039908684FF6FF7290430860019832
:1005A000029900FA01F20399086810430860009963
:1005B0000120087004B0704784B00390029101924A
:1005C00000930399C8684FF6FF729043C860019882
:1005D000029900FA01F20399C8681043C8600099B3
:1005E0000120C87004B0704784B00390029101925A
:1005F0000093039988684FF6FF72904388600198D2
:10060000029900FA01F20399886810438860009902
:100610000120887004B0704784B003900291019269
:100620000093039948684FF6FF7290434860019821
:10063000029900FA01F20399486810434860009952
:100640000120487004B0704786B0002105910491E4
:10065000022003900291019043F60800C4F20200C8
:10066000006800F00C0005900598009040B1FFE78D
:10067000009804280ED0FFE70098082814D059E00D
:1006800040F20001C2F2010142F20040C0F2F40067
:10069000086059E040F20001C2F2010147F6400053
:1006A000C0F27D1008604FE043F60400C4F202007F
:1006B0000168C1F380510291006800F03F00019091
:1006C000029888B1FFE7019947F64000C0F27D101B
:1006D000B0FBF1F043F60401C4F202010968C1F372
:1006E00088114843049010E0019942F20040C0F2A2
:1006F000F400B0FBF1F043F60401C4F20201096812
:10070000C1F3881148430490FFE743F60400C4F2A4
:100710000200006800F44031022000EBD130039069
:1007200004980399B0FBF1F040F20001C2F201011C
:10073000086009E040F20001C2F2010142F200400B
:10074000C0F2F4000860FFE743F60800C4F20200BC
:100750000068C0B2010940F2FC70C0F60000405CC5
:100760000590059A40F20001C2F201010868D040EC
:10077000086006B0704700004EF68851CEF20001C6
:10078000086840F470000860704700000000000036
:1007900080B58CB0002001900B90FFF755FF0198B9
:1007A00043F63002C4F20202116841F48071116014
:1007B00042F20001C4F20201049101210591069167
:1007C00007900890099004A802A9FFF745FEFFE7EB
:1007D00042F21801C4F20201086840F00200086009
:1007E000F6E7F1EE100A4FF6FF71C0F2C03120EAD1
:1007F000010040F04070E1EE100A70470000000078
:100800000000000001020304060708094770696F31
:10081000436F6E662D3E4750494F785F50696E209A
:100820003E3D30202626204770696F436F6E662D4F
:100830003E4750494F785F50696E203C3136004743
:1008400070696F436F6E6620213D204E554C4C0001
:1008500073746D3332663778785F48414C5F475028
:10086000494F2E63000000008808000800000120A6
:100870000800000004020008900800080800012099
:1008800060060000200200080024F40000000000C0
:04000005080001C925
:00000001FF
